:100000000C9434000C9451000C9451000C94510049
:100010000C94CC040C9451000C9451000C9451009D
:100020000C9451000C9451000C9451000C949304C6
:100030000C9451000C9451000C9451000C945100FC
:100040000C9451000C9451000C9451000C945100EC
:100050000C9451000C9451000C9451000C945100DC
:100060000C9451000C94510011241FBECFEFD8E026
:10007000DEBFCDBF13E0A0E0B1E0EEE9F8E102C0E1
:1000800005900D92A634B107D9F713E0A6E4B3E0CA
:1000900001C01D92A035B107E1F70E9462000C94E7
:1000A0004D0C0C9400008FEF8AB98FE387B98FEB6A
:1000B00084B98BB11BB888B1807C88B985B1807454
:1000C00085B90895EF92FF920F931F93DF93CF931B
:1000D000CDB7DEB764970FB6F894DEBF0FBECDBFC5
:1000E0000E9453001092B9008BE08093B8000E94E8
:1000F000F4010E94D20180E091E00E94660280E15A
:1001000097E228EB30E0F9013197F1F70197D9F741
:100110000E94D2010E9404040E949D0480E29EE499
:1001200028EB30E0F9013197F1F70197D9F70E94F8
:10013000D2018DB79EB708970FB6F8949EBF0FBE39
:100140008DBFEDB7FEB731968E010F5F1F4FADB774
:10015000BEB712961C930E93119784E190E093839F
:10016000828386E191E095838483178216820E94C0
:100170009F098DB79EB708960FB6F8949EBF0FBE25
:100180008DBFC8010E94660289E291E00E9466026A
:1001900080E29EE428EB30E0F9013197F1F7019716
:1001A000D9F70E94D20108EB10E083E3E82E87E044
:1001B000F82E86E391E00E94660280E29EE4F80158
:1001C0003197F1F70197D9F70E94D20180E29EE4BE
:1001D000F8013197F1F70197D9F784E491E00E9493
:1001E000660280E29EE4F8013197F1F70197D9F7B2
:1001F00084EF0E94540380E197E2F8013197F1F710
:100200000197D9F70EC0C7010197F1F781E591E099
:100210000E94660280E29EE4F8013197F1F70197AF
:10022000D9F70E943503882371F70E94D2018BE52C
:1002300091E00E94660280E197E2F8013197F1F7C0
:100240000197D9F70E94D201B4CFFF920F931F9369
:10025000F82EFB01D90100000000000000000000A2
:1002600041155105E9F184EA8093BC008091BC00FE
:1002700087FFFCCF9091B900987F983009F088C033
:100280008F2D8E7F8093BB0084E88093BC0080918B
:10029000BC0087FFFCCF9091B900987F983121F086
:1002A000903209F075C071C024E880818093BB0052
:1002B0002093BC008091BC0087FFFCCF9091B900D7
:1002C000987F41505040983239F43196411551058C
:1002D00061F791E081E006C0903309F059C055C044
:1002E00090E080E00115110509F44CC0882311F459
:1002F00028E001C020E184EA8093BC008091BC002A
:1003000087FFFCCF9091B900987F921709F040C009
:1003100081E0F82AF092BB0084E88093BC008091D1
:10032000BC0087FFFCCF9091B900987F903419F002
:10033000983471F52AC00150104024EC10C020936D
:10034000BC008091BC0087FFFCCF9091B900987FE2
:10035000015010409035E1F48091BB008D93011560
:10036000110569F784E88093BC008091BC0087FF89
:10037000FCCF9091B900987F983551F48091BB00E3
:100380008C9302C0992321F090E084E98093BC0013
:10039000892F1F910F91FF9008951092B9008093BB
:1003A000B80008950F931F93DF93CF9300D0CDB77C
:1003B000DEB780E8898381E08A838AE7BE016F5FC8
:1003C0007F4F42E050E020E030E000E010E00E948B
:1003D000250180E090E90197F1F70F900F90CF9100
:1003E000DF911F910F910895DF92EF92FF920F938B
:1003F0001F93DF93CF93CDB7DEB728970FB6F8944E
:10040000DEBF0FBECDBF80ED97E025EF30E0F901F4
:100410003197F1F70197D9F790E8D92ED98288E37F
:100420008A838AE7BE016F5F7F4F42E050E020E0A1
:1004300030E000E010E00E94250186E2E82E81E035
:10044000F82EC7010197F1F7DB828FE08C838AE7F2
:10045000BE016D5F7F4F42E050E020E030E00E943F
:100460002501C7010197F1F7DD8281E08E838AE7DC
:10047000BE016B5F7F4F42E050E020E030E00E9421
:10048000250180E090E90197F1F7DF8286E0888717
:100490008AE7BE01695F7F4F42E050E020E030E034
:1004A0000E942501C7010197F1F7C7010197F1F7F4
:1004B00028960FB6F894DEBF0FBECDBFCF91DF9167
:1004C0001F910F91FF90EF90DF9008950F931F936E
:1004D000DF93CF93CDB7DEB7A0970FB6F894DEBF0A
:1004E0000FBECDBFBC01DC010D900020E9F78D01EE
:1004F00001501040081B190B80E489839E012E5F78
:100500003F4FC901A8010E9496090F5F1F4F8AE75C
:10051000BE016F5F7F4FA80120E030E000E010E0F7
:100520000E942501A0960FB6F894DEBF0FBECDBF86
:10053000CF91DF911F910F9108950F931F93DF9338
:10054000CF93CDB7DEB7A0970FB6F894DEBF0FBE3E
:10055000CDBF2DB73EB72A5030400FB6F8943EBFFE
:100560000FBE2DBFEDB7FEB731968E010F5F1F4F47
:10057000ADB7BEB712961C930E93119720E230E0F0
:100580003383228327E631E0358324839783868370
:10059000608711860E949F092DB73EB7265F3F4FA7
:1005A0000FB6F8943EBF0FBE2DBFC8010E94660271
:1005B000A0960FB6F894DEBF0FBECDBFCF91DF91EE
:1005C0001F910F910895FF920F931F93DF93CF9385
:1005D00000D000D0CDB7DEB784EFF82EFA828EEED1
:1005E000BE016E5F7F4F41E050E09E012F5F3F4FA5
:1005F00001E010E00E94250189818C7F8160898360
:10060000FB828C838EEEBE016D5F7F4F42E050E037
:1006100020E030E000E010E00E9425010F900F90F4
:100620000F900F90CF91DF911F910F91FF90089540
:100630000F931F93DF93CF9300D0CDB7DEB78A839C
:100640008EEEBE016E5F7F4F41E050E09E012F5F56
:100650003F4F01E010E00E94250189810F900F902B
:10066000CF91DF911F910F9108950F931F93DF9307
:10067000CF9300D0CDB7DEB783EF89838EEEBE0176
:100680006F5F7F4F41E050E09E012E5F3F4F01E0E2
:1006900010E00E9425018A8188700F900F90CF9101
:1006A000DF911F910F9108950F931F93DF93CF93C5
:1006B000CDB7DEB7A2970FB6F894DEBF0FBECDBFA1
:1006C00089838EEEBE016F5F7F4F41E050E09E0157
:1006D0002E5F3F4F01E010E00E9425018DB79EB7CD
:1006E00008970FB6F8949EBF0FBE8DBFEDB7FEB74B
:1006F00031968E010D5F1F4FADB7BEB712961C939A
:100700000E93119780E290E09383828381E791E0DA
:10071000958384838A81868317820E949F098DB77F
:100720009EB708960FB6F8949EBF0FBE8DBFC80146
:100730000E94660280E29EE425EF30E0F9013197E5
:10074000F1F70197D9F7A2960FB6F894DEBF0FBE66
:10075000CDBFCF91DF911F910F9108950F931F93FC
:10076000DF93CF93CDB7DEB7A2970FB6F894DEBF75
:100770000FBECDBF80ED89838EEEBE016F5F7F4FD0
:1007800041E050E09E012E5F3F4F01E010E00E94EB
:10079000250180E090E60197F1F78DB79EB70897A5
:1007A0000FB6F8949EBF0FBE8DBFEDB7FEB7319662
:1007B0008E010D5F1F4FADB7BEB712961C930E93FF
:1007C000119780E290E0938382838FE791E0958395
:1007D00084838A81868317820E949F098DB79EB782
:1007E00008960FB6F8949EBF0FBE8DBFC8010E9439
:1007F0006602A2960FB6F894DEBF0FBECDBFCF91B2
:10080000DF911F910F910895DF92EF92FF920F9366
:100810001F93DF93CF93CDB7DEB72A970FB6F89427
:10082000DEBF0FBECDBF32EFD32ED9828EEE7E015A
:100830000894E11CF11CB70141E050E09E012E5FDD
:100840003F4F01E010E00E9425018A81887F81608E
:100850008A83DD828E838EEEBE016B5F7F4F42E026
:1008600050E020E030E000E010E00E9425011B8213
:1008700024EFD22ED9828EEEB70141E050E09E01E6
:100880002D5F3F4F01E010E00E94250185E28B8340
:10089000DF8288878EEEBE01695F7F4F42E050E0C5
:1008A00020E030E000E010E00E94250195EFD92E15
:1008B000D9828EEEB70141E050E09E012C5F3F4FA0
:1008C00001E010E00E9425018C81837E8C83D98613
:1008D0008A878EEEBE01675F7F4F42E050E020E0E6
:1008E00030E000E010E00E94250189E891E00E94DC
:1008F000660288E893E125EF30E0F9013197F1F7DE
:100900000197D9F70E94D2012A960FB6F894DEBF5C
:100910000FBECDBFCF91DF911F910F91FF90EF9050
:10092000DF90089508951F920F920FB60F92112431
:100930000F900FBE0F901F901895E1E8F0E08081B6
:1009400088608083EFE6F0E0808182608083789425
:1009500080E096E99093890080938800E1E8F0E0D8
:10096000808185608083E8E6F0E08081826080831A
:10097000ECE6F0E080818C608083ECE7F0E0808141
:100980008F678083EAE7F0E08081876880838CE965
:1009900091E00E94660208951F920F920FB60F9287
:1009A00011242F933F934F935F936F937F938F9374
:1009B0009F93AF93BF93EF93FF938FEA91E00E94D1
:1009C0006602FF91EF91BF91AF919F918F917F91BF
:1009D0006F915F914F913F912F910F900FBE0F90AC
:1009E0001F901895EF92FF920F931F93DF93CF9371
:1009F000CDB7DEB7A0970FB6F894DEBF0FBECDBF60
:100A000080917A00806480937A0080917A0080FDE2
:100A1000FCCF6091790070E080E090E00E94F106E8
:100A20007B018C0160934C0370934D0380934E03C4
:100A300090934F0320E030E048E453E40E94C10665
:100A40001816FCF0C801B70120E030E04EE353E493
:100A50000E9491068823ACF000D000D000D0EDB702
:100A6000FEB73196CE010196ADB7BEB712969C93F4
:100A70008E93119780E290E09383828389EB91E0DB
:100A800033C1C801B70120E030E040EF52E40E94DA
:100A9000C1061816FCF0C801B70120E030E04CEDAB
:100AA00052E40E9491068823ACF000D000D000D020
:100AB000EDB7FEB73196CE010196ADB7BEB712962F
:100AC0009C938E93119780E290E09383828388ECCD
:100AD00091E00AC1C801B70120E030E040EF51E4E5
:100AE0000E94C1061816FCF0C801B70120E030E0F2
:100AF00040EA51E40E9491068823ACF000D000D077
:100B000000D0EDB7FEB73196CE010196ADB7BEB7B6
:100B100012969C938E93119780E290E09383828348
:100B200088ED91E0E1C0C801B70120E030E048E481
:100B300052E40E94C1061816FCF0C801B70120E07B
:100B400030E040E252E40E9491068823ACF000D0ED
:100B500000D000D0EDB7FEB73196CE010196ADB70B
:100B6000BEB712969C938E93119780E290E0938388
:100B7000828387EE91E0B8C0C801B70120E030E081
:100B800040EA52E40E94C1061816FCF0C801B70101
:100B900020E030E04CE852E40E9491068823ACF05B
:100BA00000D000D000D0EDB7FEB73196CE0101964F
:100BB000ADB7BEB712969C938E93119780E290E0EA
:100BC0009383828387EF91E08FC0C801B70120E053
:100BD00030E040E253E40E94C1061816FCF0C80160
:100BE000B70120E030E046E153E40E9491068823FB
:100BF000ACF000D000D000D0EDB7FEB73196CE01FA
:100C00000196ADB7BEB712969C938E93119780E272
:100C100090E09383828386E092E066C0C801B701CA
:100C200020E030E040E753E40E94C1061816FCF0D3
:100C3000C801B70120E030E046E653E40E94910687
:100C40008823ACF000D000D000D0EDB7FEB73196CD
:100C5000CE010196ADB7BEB712969C938E931197B5
:100C600080E290E09383828386E192E03DC0C801F8
:100C7000B70120E030E041E653E40E94C1061816B7
:100C8000FCF0C801B70120E030E047E553E40E94E2
:100C900091068823ACF000D000D000D0EDB7FEB7AD
:100CA0003196CE010196ADB7BEB712969C938E9346
:100CB000119780E290E09383828385E292E014C0F2
:100CC00000D000D000D0EDB7FEB73196CE0101962E
:100CD000ADB7BEB712969C938E93119780E290E0C9
:100CE0009383828385E392E0958384830E949F09A6
:100CF0008DB79EB706960FB6F8949EBF0FBE8DBFF8
:100D0000CE0101960E946602A0960FB6F894DEBF4F
:100D10000FBECDBFCF91DF911F910F91FF90EF904C
:100D20000895A8E1B0E0E7E9F6E00C946B09698367
:100D30007A838B839C832D833E834F83588789E0FE
:100D4000E82EF12CEC0EFD1ECE010196B7010E949B
:100D50008E088E010F5E1F4FCE010596B8010E94CE
:100D60008E088985823040F08989823028F0C70159
:100D7000B8010E94060901C08FEF6896E6E00C9466
:100D80008709A8E1B0E0E7ECF6E00C946B09698311
:100D90007A838B839C832D833E834F83588789E09E
:100DA000E82EF12CEC0EFD1ECE010196B7010E943B
:100DB0008E088E010F5E1F4FCE010596B8010E946E
:100DC0008E088985823040F08989823028F0C701F9
:100DD000B8010E94060901C081E06896E6E00C9423
:100DE0008709A8E0B0E0E7EFF6E00C9467097B0123
:100DF0008C01611571058105910519F482E08983E3
:100E000060C083E089838EE1C82ED12CDC82CB8246
:100E1000ED82FE820F831887C801B7010E946A071E
:100E2000FC013197F7FF3BC0222733272E1B3F0BD6
:100E300057016801022E04C0D694C794B794A794B2
:100E40000A94D2F740E050E060E070E081E090E08A
:100E5000A0E0B0E004C0880F991FAA1FBB1F2A950D
:100E6000D2F70197A109B1098E219F21A023B123B7
:100E70000097A105B10521F041E050E060E070E08D
:100E80004A295B296C297D294D835E836F8378878E
:100E90008EE190E08E1B9F0B9C838B8312C030975A
:100EA00081F00E2E04C0EE0CFF1C001F111F0A94CF
:100EB000D2F7ED82FE820F831887CE1ADF0ADC821A
:100EC000CB821A82CE0101960E94B9072896EAE0E9
:100ED0000C948309EF92FF920F931F937B018C0177
:100EE00080E0E81680E0F80681E0080780E0180757
:100EF00088F48FEFE816F1040105110531F028F0B0
:100F000088E090E0A0E0B0E017C080E090E0A0E0D2
:100F1000B0E012C080E0E81680E0F80680E0080744
:100F200081E0180728F088E190E0A0E0B0E004C07C
:100F300080E190E0A0E0B0E020E230E040E050E06E
:100F4000281B390B4A0B5B0B04C016950795F794C9
:100F5000E7948A95D2F7F701EA5BFD4F8081281B61
:100F6000310941095109C9011F910F91FF90EF907B
:100F70000895DF92EF92FF920F931F93FC01E4809C
:100F8000F58006811781D1808081823048F480E02D
:100F900090E0A0E1B0E0E82AF92A0A2B1B2BA5C0BB
:100FA000843009F49FC0823021F4EE24FF248701AD
:100FB00005C0E114F1040105110519F4E0E0F0E0C9
:100FC00096C0628173819FEF623879070CF05BC035
:100FD00022E83FEF261B370B2A3131052CF020E0A9
:100FE00030E040E050E02AC0B801A701022E04C062
:100FF00076956795579547950A94D2F781E090E0EA
:10100000A0E0B0E004C0880F991FAA1FBB1F2A955B
:10101000D2F70197A109B1098E219F21A023B12305
:101020000097A105B10521F081E090E0A0E0B0E0DB
:101030009A01AB01282B392B4A2B5B2BDA01C90112
:101040008F779070A070B07080349105A105B105C4
:1010500039F427FF09C0205C3F4F4F4F5F4F04C05A
:10106000215C3F4F4F4F5F4FE0E0F0E02030A0E0C9
:101070003A07A0E04A07A0E45A0710F0E1E0F0E0E8
:1010800079018A0127C06038710564F5FB01E158D8
:10109000FF4FD801C7018F779070A070B070803477
:1010A0009105A105B10539F4E7FE0DC080E490E09B
:1010B000A0E0B0E004C08FE390E0A0E0B0E0E80E74
:1010C000F91E0A1F1B1F17FF05C016950795F794F9
:1010D000E794319687E016950795F794E7948A95FB
:1010E000D1F705C0EE24FF248701EFEFF0E06E2F6B
:1010F000679566276795902F9F77D794DD24D794BF
:101100008E2F8695492F462B582F5D29B701CA018E
:101110001F910F91FF90EF90DF900895FC01DB018C
:10112000408151812281622F6F7770E0221F222738
:10113000221F9381892F880F822B282F30E0991F3F
:101140009927991F11969C93119721153105A9F59F
:10115000411551056105710511F482E037C082E83F
:101160009FEF13969C938E9312979A01AB0167E0C1
:10117000220F331F441F551F6A95D1F783E08C93CC
:101180000DC0220F331F441F551F12968D919C9145
:101190001397019713969C938E931297203080E0BB
:1011A000380780E0480780E4580758F314962D93D9
:1011B0003D934D935C93179708952F3F310579F434
:1011C000411551056105710519F484E08C9308956A
:1011D00064FF03C081E08C9312C01C9210C02F5793
:1011E000304013963C932E93129783E08C9387E0C4
:1011F000440F551F661F771F8A95D1F770641496A8
:101200004D935D936D937C93179708951F93DC0125
:10121000FB019C91923008F447C08081823008F431
:1012200043C0943051F411961C91843099F581811A
:10123000682F70E0611B71093FC0843021F092304B
:1012400031F48230B9F18181882389F12DC0119662
:101250001C9111978230F1F081811817D9F4129600
:101260002D913C911397828193818217930794F07B
:1012700028173907BCF014968D919D910D90BC9163
:10128000A02D2481358146815781281739074A07C7
:101290005B0718F4112341F00AC082179307A407D3
:1012A000B50740F4112319F061E070E005C06FEF5D
:1012B0007FEF02C060E070E0CB011F9108952F9294
:1012C0003F924F925F926F927F928F929F92AF92D6
:1012D000BF92CF92DF92EF92FF920F931F93CF9323
:1012E000DF93CDB7DEB7CA1BDB0B0FB6F894DEBFBA
:1012F0000FBECDBF09942A88398848885F846E84E0
:101300007D848C849B84AA84B984C884DF80EE8029
:10131000FD800C811B81AA81B981CE0FD11D0FB632
:10132000F894DEBF0FBECDBFED010895FB01DC01D7
:1013300002C001900D9241505040D8F70895AEE0A0
:10134000B0E0E5EAF9E00C946D090D891E898F89FA
:10135000988D97FF02C080E090E801979E838D836F
:101360001A83098386E08C839E01255E3F4FCE0160
:101370000196698D7A8DA9010E94D0094D815E8107
:1013800057FD0AC02F813885421753070CF49A0184
:10139000020F131FF80110822E96E4E00C948909C5
:1013A000ABE0B0E0E6EDF9E00C945F093C012B0105
:1013B0005A01FC0117821682838181FD03C06FEF01
:1013C0007FEFC6C19AE0892E1E010894211C311CB2
:1013D000F3012381F20123FD859123FF81912F01E8
:1013E000882309F4B2C1853239F423FD859123FFA6
:1013F00081912F01853229F490E0B3010E94C30B43
:10140000E7CF982FFF24EE249924FFE1FF15D0F0B9
:101410009B3269F09C3228F4903259F0933291F467
:101420000EC09D3249F0903369F441E024C052E08F
:10143000F52A84E0F82A28C098E0F92A25C0E0E1DE
:10144000FE2A22C0F7FC29C0892F80538A3070F40D
:10145000F6FE05C0989C902C1124980E15C0E89CAF
:10146000E02C1124E80EF0E2FF2A0EC09E3229F48F
:10147000F6FC6BC140E4F42A07C09C3619F450E82E
:10148000F52A02C0983649F4F20123FD959123FF15
:1014900091912F01992309F0B8CF892F855483307A
:1014A00018F08052833038F444E050E0A40EB51EAA
:1014B0005FE359830FC0933631F0933779F093355A
:1014C00009F056C020C0F5018081898342E050E0D8
:1014D000A40EB51E610101E010E012C0F501C0804C
:1014E000D180F6FC03C06FEF7FEF02C0692D70E082
:1014F00042E050E0A40EB51EC6010E94B80B8C015C
:101500005FE7F52214C0F501C080D180F6FC03C06E
:101510006FEF7FEF02C0692D70E042E050E0A40E53
:10152000B51EC6010E94AD0B8C0150E8F52AF3FEF2
:1015300007C01AC080E290E0B3010E94C30BEA9496
:101540008E2D90E008171907A8F30EC0F601F7FCDE
:101550008591F7FE81916F0190E0B3010E94C30B6A
:10156000E110EA94015010400115110579F7EAC025
:10157000943611F0993669F5F7FE08C0F50120811F
:1015800031814281538184E090E00AC0F50180817D
:1015900091819C01442737FD4095542F82E090E0D3
:1015A000A80EB91E9FE6F92257FF09C05095409535
:1015B000309521953F4F4F4F5F4FE0E8FE2ACA011B
:1015C000B901A1012AE030E00E94EF0BD82ED21819
:1015D00040C0953729F41F2D1F7E2AE030E01DC042
:1015E0001F2D197F9F3661F0903720F4983509F050
:1015F000ACC00FC0903739F0983709F0A6C004C0CE
:1016000028E030E00AC0106114FD146020E130E0F1
:1016100004C014FD166020E132E017FF08C0F50198
:10162000608171818281938144E050E008C0F501BE
:1016300080819181BC0180E090E042E050E0A40E06
:10164000B51EA1010E94EF0BD82ED2188FE7F82EFD
:10165000F122F6FE0BC05EEFF522D91438F4F4FE49
:1016600007C0F2FC05C08FEEF82202C01D2D01C09C
:10167000192DF4FE0DC0FE01ED0DF11D80818033AA
:1016800019F499EEF92208C01F5FF2FE05C003C0ED
:101690008F2D867809F01F5F0F2DF3FC14C0F0FE2C
:1016A0000FC01E1510F09D2C0BC09D2C9E0C911A86
:1016B0001E2D06C080E290E0B3010E94C30B1F5FA5
:1016C0001E15C0F304C01E1510F4E11A01C0EE246B
:1016D00004FF0FC080E390E0B3010E94C30B02FF40
:1016E0001DC001FD03C088E790E00EC088E590E0D2
:1016F0000BC0802F867891F001FF02C08BE201C001
:1017000080E2F7FC8DE290E0B3010E94C30B06C0BB
:1017100080E390E0B3010E94C30B9A94D914C0F304
:10172000DA94F101ED0DF11D808190E0B3010E948A
:10173000C30BDD20A9F706C080E290E0B3010E9450
:10174000C30BEA94EE20C1F743CEF30166817781A3
:10175000CB012B96E2E10C947B09FC0105906150D2
:1017600070400110D8F7809590958E0F9F1F0895B7
:10177000FC016150704001900110D8F78095909560
:101780008E0F9F1F08950F931F93CF93DF938C01AC
:10179000EB018B8181FF1BC082FF0DC02E813F8139
:1017A0008C819D812817390764F4E881F9810193C0
:1017B000F983E88306C0E885F985802F0995892B90
:1017C00031F48E819F8101969F838E8302C00FEF3B
:1017D0001FEFC801DF91CF911F910F910895FA017A
:1017E000AA27283051F1203181F1E8946F936E7F60
:1017F0006E5F7F4F8F4F9F4FAF4FB1E03ED0B4E051
:101800003CD0670F781F891F9A1FA11D680F791F91
:101810008A1F911DA11D6A0F711D811D911DA11DA2
:1018200020D009F468943F912AE0269F11243019B2
:10183000305D3193DEF6CF010895462F4770405D4D
:101840004193B3E00FD0C9F7F6CF462F4F70405DFC
:101850004A3318F0495D31FD4052419302D0A9F757
:10186000EACFB4E0A6959795879577956795BA9551
:10187000C9F700976105710508959B01AC010A2E17
:1018800006945795479537952795BA95C9F7620FEE
:0E189000731F841F951FA01D0895F894FFCFAD
:10189E005374617274206F66207468652070726F65
:1018AE006772616D210074696D65732073616D706F
:1018BE006C65643D25303264006166746572207318
:1018CE00616D706C6500656E746572656420776815
:1018DE00696C6500616674657220666F726365641B
:1018EE000048454C4F4F4F4F4F4F00456E64206F91
:1018FE0066206C6F6F700025733D3078253032583E
:10190E0000636F6E6669673D307825303258004946
:10191E00443D30782530325800626D6532383020C3
:10192E00696E697469616C697A6564007765617462
:10193E0068657253656E736F7220696E69740069A3
:10194E006E746572727570740057696E6420537090
:10195E00656564203D204E0057696E6420537065A6
:10196E006564203D204E450057696E6420537065B6
:10197E006564203D20450057696E6420537065658F
:10198E0064203D2053450057696E64205370656591
:10199E0064203D20530057696E6420537065656462
:1019AE00203D2053570057696E642053706565645F
:1019BE00203D20570057696E642053706565642082
:1019CE003D204E570057696E642053706565642044
:1019DE003D205858000100010202030303030404D2
:1019EE00040404040404050505050505050505059F
:1019FE00050505050505060606060606060606067F
:101A0E000606060606060606060606060606060668
:101A1E00060606060606070707070707070707074E
:101A2E000707070707070707070707070707070738
:101A3E000707070707070707070707070707070728
:101A4E000707070707070707070707070707070718
:101A5E0007070707070708080808080808080808FE
:101A6E0008080808080808080808080808080808E8
:101A7E0008080808080808080808080808080808D8
:101A8E0008080808080808080808080808080808C8
:101A9E0008080808080808080808080808080808B8
:101AAE0008080808080808080808080808080808A8
:101ABE000808080808080808080808080808080898
:101ACE000808080808080808080808080808080888
:061ADE00080808080808D2
:00000001FF
