:100000000C9434000C943E000C943E000C943E0082
:100010000C943E000C943E000C943E000C943E0068
:100020000C943E000C943E000C943E000C943E0058
:100030000C943E000C943E000C943E000C943E0048
:100040000C943E000C943E000C943E000C943E0038
:100050000C943E000C943E000C943E000C943E0028
:100060000C943E000C943E0011241FBECFEFD8E04C
:10007000DEBFCDBF0E94F2000C94A4010C940000DE
:100080008FEF8AB98FE387B98FEB84B98BB11BB837
:1000900088B1807C88B985B1807485B90895EF9264
:1000A000FF920F931F9388E893E125EF30E0F90169
:1000B0003197F1F70197D9F78DE360E870E048E0F8
:1000C00050E020E030E000E010E00E94F7008DE317
:1000D00068E370E048E050E020E030E00E94F70084
:1000E00086E2E82E81E0F82EC7010197F1F78DE353
:1000F00060E870E048E050E020E030E00E94F70067
:100100008DE36FE070E048E050E020E030E00E94D6
:10011000F700C7010197F1F78DE360E870E048E070
:1001200050E020E030E00E94F7008DE361E070E0F5
:1001300048E050E020E030E00E94F70080E090E9E5
:100140000197F1F78DE360E870E048E050E020E0CF
:1001500030E00E94F7008DE366E070E048E050E098
:1001600020E030E00E94F700C7010197F1F78DE32E
:1001700060E470E048E050E020E030E00E94F700EA
:100180008DE368E470E048E050E020E030E00E9459
:10019000F7008DE365E670E048E050E020E030E0F5
:1001A0000E94F7008DE36CE670E048E050E020E04C
:1001B00030E00E94F7008DE36CE670E048E050E02C
:1001C00020E030E00E94F7008DE36FE670E048E049
:1001D00050E020E030E00E94F7001F910F91FF9067
:1001E000EF9008950E9440000E944F00FFCFFF92C1
:1001F0000F931F93F82EFB01D901000000000000AF
:100200000000000041155105E9F184EA8093BC002B
:100210008091BC0087FFFCCF9091B900987F983007
:1002200009F088C08F2D8E7F8093BB0084E8809377
:10023000BC008091BC0087FFFCCF9091B900987FF3
:10024000983121F0903209F075C071C024E88081A6
:100250008093BB002093BC008091BC0087FFFCCF43
:100260009091B900987F41505040983239F43196BE
:100270004115510561F791E081E006C0903309F026
:1002800059C055C090E080E00115110509F44CC03B
:10029000882311F428E001C020E184EA8093BC00A7
:1002A0008091BC0087FFFCCF9091B900987F921796
:1002B00009F040C081E0F82AF092BB0084E8809306
:1002C000BC008091BC0087FFFCCF9091B900987F63
:1002D000903419F0983471F52AC00150104024EC84
:1002E00010C02093BC008091BC0087FFFCCF909190
:1002F000B900987F015010409035E1F48091BB0027
:100300008D930115110569F784E88093BC008091F5
:10031000BC0087FFFCCF9091B900987F983551F4CD
:100320008091BB008C9302C0992321F090E084E976
:100330008093BC00892F1F910F91FF900895109218
:0C034000B9008093B8000895F894FFCF36
:00000001FF
